{
  "_format": "hh-sol-artifact-1",
  "contractName": "Ethkart",
  "sourceName": "contracts/Ethkart.sol",
  "abi": [
    {
      "inputs": [],
      "stateMutability": "nonpayable",
      "type": "constructor"
    },
    {
      "anonymous": false,
      "inputs": [
        {
          "indexed": false,
          "internalType": "uint256",
          "name": "id",
          "type": "uint256"
        },
        {
          "indexed": false,
          "internalType": "string",
          "name": "name",
          "type": "string"
        }
      ],
      "name": "list",
      "type": "event"
    },
    {
      "inputs": [
        {
          "internalType": "uint256",
          "name": "",
          "type": "uint256"
        }
      ],
      "name": "Items",
      "outputs": [
        {
          "internalType": "uint256",
          "name": "id",
          "type": "uint256"
        },
        {
          "internalType": "string",
          "name": "name",
          "type": "string"
        },
        {
          "internalType": "string",
          "name": "category",
          "type": "string"
        },
        {
          "internalType": "string",
          "name": "img",
          "type": "string"
        },
        {
          "internalType": "uint256",
          "name": "cost",
          "type": "uint256"
        },
        {
          "internalType": "uint256",
          "name": "stock",
          "type": "uint256"
        },
        {
          "internalType": "uint256",
          "name": "rating",
          "type": "uint256"
        }
      ],
      "stateMutability": "view",
      "type": "function"
    },
    {
      "inputs": [
        {
          "internalType": "uint256",
          "name": "_id",
          "type": "uint256"
        },
        {
          "internalType": "string",
          "name": "_name",
          "type": "string"
        },
        {
          "internalType": "string",
          "name": "_category",
          "type": "string"
        },
        {
          "internalType": "string",
          "name": "_img",
          "type": "string"
        },
        {
          "internalType": "uint256",
          "name": "_cost",
          "type": "uint256"
        },
        {
          "internalType": "uint256",
          "name": "_stock",
          "type": "uint256"
        },
        {
          "internalType": "uint256",
          "name": "_rating",
          "type": "uint256"
        }
      ],
      "name": "ListProduct",
      "outputs": [],
      "stateMutability": "nonpayable",
      "type": "function"
    },
    {
      "inputs": [
        {
          "internalType": "uint256",
          "name": "_id",
          "type": "uint256"
        }
      ],
      "name": "buy",
      "outputs": [],
      "stateMutability": "payable",
      "type": "function"
    },
    {
      "inputs": [],
      "name": "owner",
      "outputs": [
        {
          "internalType": "address",
          "name": "",
          "type": "address"
        }
      ],
      "stateMutability": "view",
      "type": "function"
    }
  ],
  "bytecode": "0x608060405234801561001057600080fd5b50336000806101000a81548173ffffffffffffffffffffffffffffffffffffffff021916908373ffffffffffffffffffffffffffffffffffffffff160217905550610bb0806100606000396000f3fe60806040526004361061003f5760003560e01c806317b47cc4146100445780634fd2d159146100875780638da5cb5b146100b0578063d96a094a146100db575b600080fd5b34801561005057600080fd5b5061006b60048036038101906100669190610495565b6100f7565b60405161007e9796959493929190610561565b60405180910390f35b34801561009357600080fd5b506100ae60048036038101906100a9919061071a565b6102d1565b005b3480156100bc57600080fd5b506100c5610424565b6040516100d29190610851565b60405180910390f35b6100f560048036038101906100f09190610495565b610448565b005b60016020528060005260406000206000915090508060000154908060010180546101209061089b565b80601f016020809104026020016040519081016040528092919081815260200182805461014c9061089b565b80156101995780601f1061016e57610100808354040283529160200191610199565b820191906000526020600020905b81548152906001019060200180831161017c57829003601f168201915b5050505050908060020180546101ae9061089b565b80601f01602080910402602001604051908101604052809291908181526020018280546101da9061089b565b80156102275780601f106101fc57610100808354040283529160200191610227565b820191906000526020600020905b81548152906001019060200180831161020a57829003601f168201915b50505050509080600301805461023c9061089b565b80601f01602080910402602001604051908101604052809291908181526020018280546102689061089b565b80156102b55780601f1061028a576101008083540402835291602001916102b5565b820191906000526020600020905b81548152906001019060200180831161029857829003601f168201915b5050505050908060040154908060050154908060060154905087565b3373ffffffffffffffffffffffffffffffffffffffff1660008054906101000a900473ffffffffffffffffffffffffffffffffffffffff1673ffffffffffffffffffffffffffffffffffffffff161461032957600080fd5b60006040518060e0016040528089815260200188815260200187815260200186815260200185815260200184815260200183815250905080600160008a81526020019081526020016000206000820151816000015560208201518160010190816103939190610a78565b5060408201518160020190816103a99190610a78565b5060608201518160030190816103bf9190610a78565b506080820151816004015560a0820151816005015560c082015181600601559050507fea7bc0cd983eefcb24923659531ea35ca60c718f1bacd3de7ef08ee7e649c6ae8888604051610412929190610b4a565b60405180910390a15050505050505050565b60008054906101000a900473ffffffffffffffffffffffffffffffffffffffff1681565b50565b6000604051905090565b600080fd5b600080fd5b6000819050919050565b6104728161045f565b811461047d57600080fd5b50565b60008135905061048f81610469565b92915050565b6000602082840312156104ab576104aa610455565b5b60006104b984828501610480565b91505092915050565b6104cb8161045f565b82525050565b600081519050919050565b600082825260208201905092915050565b60005b8381101561050b5780820151818401526020810190506104f0565b60008484015250505050565b6000601f19601f8301169050919050565b6000610533826104d1565b61053d81856104dc565b935061054d8185602086016104ed565b61055681610517565b840191505092915050565b600060e082019050610576600083018a6104c2565b81810360208301526105888189610528565b9050818103604083015261059c8188610528565b905081810360608301526105b08187610528565b90506105bf60808301866104c2565b6105cc60a08301856104c2565b6105d960c08301846104c2565b98975050505050505050565b600080fd5b600080fd5b7f4e487b7100000000000000000000000000000000000000000000000000000000600052604160045260246000fd5b61062782610517565b810181811067ffffffffffffffff82111715610646576106456105ef565b5b80604052505050565b600061065961044b565b9050610665828261061e565b919050565b600067ffffffffffffffff821115610685576106846105ef565b5b61068e82610517565b9050602081019050919050565b82818337600083830152505050565b60006106bd6106b88461066a565b61064f565b9050828152602081018484840111156106d9576106d86105ea565b5b6106e484828561069b565b509392505050565b600082601f830112610701576107006105e5565b5b81356107118482602086016106aa565b91505092915050565b600080600080600080600060e0888a03121561073957610738610455565b5b60006107478a828b01610480565b975050602088013567ffffffffffffffff8111156107685761076761045a565b5b6107748a828b016106ec565b965050604088013567ffffffffffffffff8111156107955761079461045a565b5b6107a18a828b016106ec565b955050606088013567ffffffffffffffff8111156107c2576107c161045a565b5b6107ce8a828b016106ec565b94505060806107df8a828b01610480565b93505060a06107f08a828b01610480565b92505060c06108018a828b01610480565b91505092959891949750929550565b600073ffffffffffffffffffffffffffffffffffffffff82169050919050565b600061083b82610810565b9050919050565b61084b81610830565b82525050565b60006020820190506108666000830184610842565b92915050565b7f4e487b7100000000000000000000000000000000000000000000000000000000600052602260045260246000fd5b600060028204905060018216806108b357607f821691505b6020821081036108c6576108c561086c565b5b50919050565b60008190508160005260206000209050919050565b60006020601f8301049050919050565b600082821b905092915050565b60006008830261092e7fffffffffffffffffffffffffffffffffffffffffffffffffffffffffffffffff826108f1565b61093886836108f1565b95508019841693508086168417925050509392505050565b6000819050919050565b600061097561097061096b8461045f565b610950565b61045f565b9050919050565b6000819050919050565b61098f8361095a565b6109a361099b8261097c565b8484546108fe565b825550505050565b600090565b6109b86109ab565b6109c3818484610986565b505050565b5b818110156109e7576109dc6000826109b0565b6001810190506109c9565b5050565b601f821115610a2c576109fd816108cc565b610a06846108e1565b81016020851015610a15578190505b610a29610a21856108e1565b8301826109c8565b50505b505050565b600082821c905092915050565b6000610a4f60001984600802610a31565b1980831691505092915050565b6000610a688383610a3e565b9150826002028217905092915050565b610a81826104d1565b67ffffffffffffffff811115610a9a57610a996105ef565b5b610aa4825461089b565b610aaf8282856109eb565b600060209050601f831160018114610ae25760008415610ad0578287015190505b610ada8582610a5c565b865550610b42565b601f198416610af0866108cc565b60005b82811015610b1857848901518255600182019150602085019450602081019050610af3565b86831015610b355784890151610b31601f891682610a3e565b8355505b6001600288020188555050505b505050505050565b6000604082019050610b5f60008301856104c2565b8181036020830152610b718184610528565b9050939250505056fea264697066735822122083ddf5bde629b54dbac3362c33fc51838c31f6a427c67701c9bfa451494f15b164736f6c63430008110033",
  "linkReferences": {},
  "deployedLinkReferences": {}
}